:102F000045C0000058C0000056C0000054C000007A
:102F100052C0000050C000004EC000004CC0000075
:102F20004AC0000048C0000046C0000044C0000085
:102F300042C0000040C000003EC000003CC0000095
:102F40003AC0000038C0000036C0000034C00000A5
:102F500032C0000030C000002EC000002CC00000B5
:102F60002AC0000028C0000026C0000024C00000C5
:102F700022C0000020C000001EC000001CC00000D5
:102F80001AC0000018C0000016C0000011241FBEA7
:102F9000CFEFD0E4DEBFCDBF18E0A0E0B1E0E0EEBF
:102FA000F3E300E00BBF02C007900D92AE3DB10706
:102FB000D9F794D013C2A4CFAF92BF92CF92DF9231
:102FC000EF92FF920F931F93CF93DF93CDB7DEB7AE
:102FD00060970FB6F894DEBF0FBECDBF5C0180E0F6
:102FE0009DE0F4D19E012F5F3F4F790100E010E09A
:102FF0006901882361F00031110549F0C801935F30
:10300000E5D1F70181937F010F5F1F4FF2CFA5013B
:1030100060E170E0C601ABD060960FB6F894DEBFF9
:103020000FBECDBFDF91CF911F910F91FF90EF9019
:10303000DF90CF90BF90AF900895EF92FF920F93E3
:103040001F93CF93DF93CDB7DEB768970FB6F89491
:10305000DEBF0FBECDBF8C018091000190910101B8
:1030600001969093010180930001AE014F5E5F4F86
:1030700060E170E082E091E07AD0CE0109969CDFB9
:10308000FE017196BE01675F7F4F9E012F5F3F4F2C
:10309000CE01499679014191DB015D91BD01452742
:1030A000D9014D939D01E817F907A9F76BE271E08B
:1030B000C8016CD1AC01425F5F4F68E070E0C701AE
:1030C00084D068960FB6F894DEBF0FBECDBFDF91F7
:1030D000CF911F910F91FF90EF900895CF93DF93C1
:1030E000CDB7DEB7DA950FB6F894DEBF0FBECDBF11
:1030F000DBD060E071E0CE01019627D12981222347
:10310000C1F3AC016BE471E0CE01019646D1892B8D
:1031100081F7CE01019691DFCE010196BCD0E9CFB7
:103120009FEB980F963010F4875308959FE9980FFE
:10313000963010F48755089580538A3008F08FEF49
:1031400008951F93CF93DF931F92CDB7DEB76983A6
:10315000E7DF182F6981862FE3DF90E1199F900147
:103160001124822B0F90DF91CF911F910895AF9280
:10317000BF92CF92DF92EF92FF920F931F93CF9364
:10318000DF937C016A0117D15C01C0E0D0E0CE0181
:1031900095958795CA15DB056CF48601080F191FF4
:1031A000F701EC0FFD1F61818081CBDFF801808387
:1031B0002296EDCFDF91CF911F910F91FF90EF906D
:1031C000DF90CF90BF90AF9008950F931F93CF9350
:1031D000DF939C01FA013196DC01CD01821B930B38
:1031E00086179707D4F48D019C9192959F709A3021
:1031F00010F0995A01C0905DAF0141505109EA01A8
:1032000098831196E80198819F709A3010F0995A2E
:1032100001C0905D90833296E0CFCB0177FF02C072
:1032200080E090E0880F991FDF91CF911F910F915F
:103230000895FC0120E030E026173707CCF44091D8
:10324000C00047FFFCCF4091C6005091C00055FF21
:10325000FCCF4093C6004A3029F4FC01E20FF31F73
:10326000108206C04D30C9F341932F5F3F4FE4CF2A
:10327000C90108959C01FC01AF01421B530B9191C0
:10328000992339F08091C00085FFFCCF9093C60050
:10329000F3CFCA010895EEDF2091C00025FFFCCFD7
:1032A0002AE02093C60008958DE791E0E3CF0F93C5
:1032B0001F93CF93DF93EC018B01AB016DE676E0BA
:1032C0006CD0892B39F482E796E0DF91CF911F9182
:1032D0000F91D0CFA80163E877E0CE015ED0892BB3
:1032E00019F48DE897E027C0A8016CEC77E0CE01D7
:1032F00054D0892B19F483ED97E01DC0A80162EE2C
:1033000077E0CE014AD0892B19F48FEE97E013C0F5
:10331000A8016AE278E0CE0140D0892B19F483E35A
:1033200098E009C0A8016BE471E0CE0136D0892B8A
:1033300039F089EA98E0DF91CF911F910F91ABCFDF
:10334000DF91CF911F910F910895EF92FF920F930C
:103350001F93CF93DF9300D0CDB7DEB78C018BEDF9
:1033600098E069837A8386DF69817A81C80161DFA9
:103370007C01BC01C8019BDFC7010F900F90DF915A
:10338000CF911F910F91FF90EF900895FB01DC0109
:1033900001900D920020E1F70895FB01DC014150FE
:1033A000504030F08D910190801919F40020B9F748
:1033B000881B990B0895FC01615070400190011029
:1033C000D8F7809590958E0F9F1F0895F999FECF9D
:1033D00092BD81BDF89A992780B50895F894FFCFE2
:1033E0005001613432323235366166313265303007
:1033F0003263653863343766336139656135653802
:103400006361633762353362386400666C61677B81
:10341000726F6C6C6261636B5F6465616462656549
:103420006664656164626565667D00464C4147007F
:10343000666C61677B696E74656C6C6563747561DD
:103440006C5F70726F70657274795F343766363096
:1034500037343663383533666563657D0020202058
:10346000202020202020202020202020202020205C
:10347000202020202020202020202020202020204C
:10348000202020202020202020202020202020203C
:10349000202020202020202020202020202020202C
:1034A00020202020200A20205F5F20205F5F205FF7
:1034B0005F5F5F5F205F5F5F5F5F5F5F205F5F5F9A
:1034C0005F5F20205F5F5F5F5F5F202020205F5F86
:1034D0005F5F5F202020202020202020205F5F5F72
:1034E0005F5F2020202020202020202020200A2074
:1034F0007C20205C2F20207C5F2020205F7C5F5F71
:103500002020205F5F7C20205F5F205C7C20205F8C
:103510005F5F5F7C20202F205F5F5F5F7C2020202B
:103520002F5C2020207C20205F5F205C202020203A
:103530002020200A207C205C20202F207C207C2042
:103540007C202020207C207C20207C207C5F5F2928
:10355000207C207C5F5F202020207C207C2020207D
:10356000202020202F20205C20207C207C5F5F29D1
:10357000207C20202020202020200A207C207C5C11
:103580002F7C207C207C207C202020207C207C2004
:10359000207C20205F20202F7C20205F5F7C20204B
:1035A000207C207C2020202020202F202F5C205CCD
:1035B000207C20205F20202F202020202020202061
:1035C0000A207C207C20207C207C5F7C207C5F206B
:1035D00020207C207C20207C207C205C205C7C20A7
:1035E0007C5F5F5F5F20207C207C5F5F5F5F202FC0
:1035F000205F5F5F5F205C7C207C205C205C202063
:10360000202020200A207C5F7C20207C5F7C5F5F64
:103610005F5F5F7C20207C5F7C20207C5F7C2020A3
:103620005C5F5C5F5F5F5F5F5F7C20205C5F5F5F14
:103630005F5F2F5F2F202020205C5F5C5F7C20205D
:103640005C5F5C2020200A202020202020202020D9
:10365000202020202020202020202020202020206A
:10366000202020202020202020202020202020205A
:10367000202020202020202020202020202020204A
:103680002020202020202020202020202020200A50
:10369000202820202020282020202020202020201A
:1036A0002020202020202020202020202029202011
:1036B00020202920202820202020202020202028F1
:1036C00020202020202020202028202020202020F2
:1036D00020202020202020200A20295C20292029A9
:1036E0005C20292020202820202020202820202085
:1036F00020202028202F282028202F282020295C47
:103700002029202A20202029295C20292020282047
:103710002020295C20292020202020200A28282958
:103720002F282828292F28202020295C202020200D
:10373000295C2029202020295C282929295C282986
:10374000292828292F60202920202F2828292F28C0
:103750002020295C202828292F28202020202020F4
:103760000A202F285F29292F285F29282828285F49
:103770002928202828292F28202028285F295C286C
:10378000285F295C20202F285F29282029285F29ED
:103790002F285F292828285F29202F285F29292002
:1037A000202020202020200A285F29295F285F2947
:1037B000292020295C205F20295C202F285F2929CF
:1037C0005F205F28285F292028285F29285F292972
:1037D000285F285F2829285F292920295C5F5F5FEF
:1037E000285F29292020202020202020200A207C3A
:1037F0002020207C5F205F7C20285F295F5C285F81
:10380000285F2929205F5F7C205C7C207C2F205F43
:10381000205C2F205F5F7C5F2020205F7C5F205F2B
:1038200028282F205F5F2F205F5F7C202020202012
:103830002020200A207C207C29207C207C20202025
:103840002F205F205C2020207C20285F207C202EE1
:1038500060207C20285F29205C5F5F205C207C202A
:103860007C20207C207C207C20285F5F5C5F5F20A8
:103870005C2020202020200A207C5F5F5F7C5F5F2F
:103880005F7C202F5F2F205C5F5C2020205C5F5FCF
:103890005F7C5F7C5C5F7C5C5F5F5F2F7C5F5F5FFA
:1038A0002F207C5F7C207C5F5F5F7C205C5F5F5FA4
:1038B0007C5F5F5F2F20202020200A2020202020F6
:1038C00020202020202020202020202020202020F8
:1038D00020202020202020202020202020202020E8
:1038E00020202020202020202020202020202020D8
:1038F00020202020202020202020202020202020C8
:103900002020200A54797065202248454C502220FE
:10391000666F722061206C697374696E67206F66D0
:1039200020636F6D6D616E64732E20202020202037
:103930002020202020202020202020202020202087
:10394000202020202020202020200A0A0048454C4A
:1039500050004D49545245204361722044696167CB
:103960006E6F746963732053797374656D20436F50
:103970006D6D616E64733A0A202A2048454C5020D0
:103980002D2054686973206D6573736167650A2023
:103990002A20454D495353494F4E53202D205175F0
:1039A00065727920656D697373696F6E73207379C1
:1039B0007374656D207374617475730A202A2053C3
:1039C0004146455459202D20517565727920736107
:1039D000666574792073797374656D20737461748E
:1039E00075730A202A20494E464F5441494E4D4591
:1039F0004E54202D20517565727920696E666F7264
:103A00006D6174696F6E2F656E7465727461696E35
:103A10006D656E742073797374656D207374617451
:103A200075730A202A205345435552495459202D75
:103A3000205175657279206379626572736563756B
:103A4000726974792073797374656D20737461740D
:103A500075730A202A20464C4147202D203F3F3FC6
:103A60000A0A00454D495353494F4E53004E6F7754
:103A7000207468617420796F75206D656E74696F4C
:103A80006E2069742C2074686520736D6F6B6520DF
:103A9000757375616C6C792069736E277420746816
:103AA000617420636F6C6F722E2E2E005341464559
:103AB00054590053797374656D206E6F726D616C2B
:103AC0002E00494E464F5441494E4D454E540050EC
:103AD0006C6179696E6720766964656F3A206874F5
:103AE0007470733A2F2F7777772E796F75747562AC
:103AF000652E636F6D2F77617463683F763D645107
:103B000077347739576758635100534543555249C5
:103B10005459004E6F207669727573657320646521
:103B20007465637465642E205369676E6174757281
:103B30006573206C617374207570646174656420B2
:103B4000312F312F313937302E0A4669726577614E
:103B50006C6C2064697361626C656420626563618A
:103B60007573652069742073746F70732074686551
:103B700020616972626167732066726F6D2064658F
:103B8000706C6F79696E672E00436F6D6D616E6446
:103B9000206E6F74207265636F676E697A65642E3C
:103BA00020557365202248454C502220666F7220B4
:0E3BB00061206C697374696E672E002D3E00F3
:0400000300002F00CA
:00000001FF
