:1000000045C0000058C0000056C0000054C00000A9
:1000100052C0000050C000004EC000004CC00000A4
:100020004AC0000048C0000046C0000044C00000B4
:1000300042C0000040C000003EC000003CC00000C4
:100040003AC0000038C0000036C0000034C00000D4
:1000500032C0000030C000002EC000002CC00000E4
:100060002AC0000028C0000026C0000024C00000F4
:1000700022C0000020C000001EC000001CC0000004
:100080001AC0000018C0000016C0000011241FBED6
:10009000CFEFD0E4DEBFCDBF11E0A0E0B1E0ECE6F1
:1000A000F1E000E00BBF02C007900D92A030B10755
:1000B000D9F726D059C0A4CFEF92FF920F931F9388
:1000C000CF93DF938C0180E09CE046D07801C0E0C4
:1000D000D0E0882359F0C038D10541F0CE01945FBB
:1000E0003BD0F70181937F012196F3CFC00FD11F41
:1000F0001882DF91CF911F910F91FF90EF9008959B
:10010000CF93DF93CDB7DEB7C058D1090FB6F894BF
:10011000DEBF0FBECDBFCE010196CEDFCE01019670
:1001200012D0F9CF9C01FC01AF01421B530B9191FE
:10013000992339F08091C00085FFFCCF9093C600D1
:10014000F3CFCA010895EEDF2091C00025FFFCCF58
:100150002AE02093C6000895F999FECF92BD81BD93
:0C016000F89A992780B50895F894FFCF15
:00000001FF
