:107800000000000000000000000000000000000078
:107810000000000000000000000000000000000068
:107820000000000000000000000000000000000058
:107830000000000000000000000000000000000048
:020000021000EC
:10E0000014BE112488E180936000109260000C948B
:10E010001DFB27E0A4E0B1E001C01D92A033B207D0
:10E02000E1F70C941DFB1092CD008AE08093CC00A8
:10E03000E8ECF0E080818D7F808388E18093C900E7
:10E0400086E08093CA0008959091C80095FFFCCFA8
:10E050008093CE0008958091C800881F8827881F6C
:10E0600008958091C80087FFFCCF8091CE0008956D
:10E070008091C80087FF03C08091CE00F9CF08953A
:10E080001092C5008AE08093C400E0ECF0E080814B
:10E090008D7F808388E18093C10086E08093C200F9
:10E0A00008959091C00095FFFCCF8093C60008951D
:10E0B0008091C000881F8827881F08958091C00024
:10E0C00087FFFCCF8091C60008958091C00087FF34
:10E0D00003C08091C600F9CF08950895E0E2F7E00B
:10E0E000119287E0E033F807D9F7E4E0F1E011920C
:10E0F00082E0E430F807D9F7ECE1F3E0119287E031
:10E10000E032F807D9F7E4E0F2E0119283E0EC3175
:10E11000F807D9F708959BE088E10FB6F894A89521
:10E12000809360000FBE909360000E946EF0FFCF5E
:10E1300080917A00806480937A0080917A0086FDD5
:10E14000FCCF809178009091790089270895CF9332
:10E15000DF930E9498F0D82F0E9498F0C82F0E9459
:10E1600098F0CC0FC11D880F811D880F811DC82715
:10E17000CD270E9498F0829580FB879587F9C82764
:10E180000E9498F08295C8270E9498F0982F929547
:10E19000990F911DC9270E9498F0982F9295990F79
:10E1A000911D990F911DC9270E9498F080FB8795BA
:10E1B00087F98C27DF91CF910895ECE7F0E080811B
:10E1C0008A608083808180688083EAE7F0E08081D4
:10E1D000876080838081806880830895A2E0B0E0BA
:10E1E000E4EFF0EF0C944CFBA8950E946EF09AE0DF
:10E1F00088E10FB6F894A895809360000FBE9093C5
:10E200006000E0E0F8E78591949190931F0380937C
:10E210001E0380EE9FEFA0E2B7E020E12A0FAC01E1
:10E22000092E000C660B770B6BBFFA0147914D93DB
:10E2300001962A13F4CF10921C0384E092E048E088
:10E24000342E380E50E2452E57E0552E80911C0397
:10E25000883708F056C0A89534E0632E32E0732E5C
:10E2600083010E94A7F0F80181938F013E12F9CF3C
:10E2700080911C0390E0982F8827A4E0B1E084509F
:10E280009140FC01EA0FFB1FE491ED93F2E0A43012
:10E29000BF07B9F75F924F9284E0882E82E0982EF4
:10E2A000A12CB12CC12CD12CE12CFF24F39404E03F
:10E2B00011E024E030E04CE153E0BE016F5F7F4F9E
:10E2C0008CE092E00E94E6F50CE113E00F900F90D5
:10E2D000F80181918F010E9424F0F3E000321F07C2
:10E2E000B9F7F30181913F010E9424F0FCE16F1620
:10E2F000F3E07F06B1F780911C038F5F80931C03CE
:10E30000A5CF0E946EF00E948BF0CF93DF93A8956B
:10E310000E946EF0E0E0F9E7E491E11102C00E9492
:10E320008BF0E0E0F8E7C591D4918C2F0E9451F07A
:10E330008D2F0E9451F0C0E0D9E7FE018491811138
:10E340000E9451F02196FDE7C030DF07B1F70C9431
:10E350000000DF91CF910895A0E0B0E0E2EBF1EF93
:10E360000C9454FB07B600FCFDCFF999FECF6C016D
:10E37000E12CF12C23E0F601E0925B0020935700A2
:10E38000E895EB0121968B011395DB01BB24B39437
:10E39000861B970B2C911C92488130E0342B1882FD
:10E3A00007B600FCFDCFF999FECFAC014A0F5B1F09
:10E3B00060E070E00901FA0160935B00B0925700E1
:10E3C000E895112412962296A017B10719F707B6FF
:10E3D00000FCFDCFF999FECF85E0F601E0925B00ED
:10E3E00080935700E895CDB7DEB7E9E00C9470FB59
:10E3F000A2E0B0E0EEEFF1EF0C944CFBA8950E9488
:10E400006EF09DE088E10FB6F894A89580936000C7
:10E410000FBE909360000EE113E00E9431F0F8010E
:10E4200081938F01F7E000321F07B9F7E0E0F8E7CA
:10E430004591549190911D0320911E0330911F032B
:10E440002115310521F081E02417350708F080E01F
:10E45000892B80931D03811199C080EF9FEF30E2DB
:10E46000632E37E0732ED30140E1342E360CAC011D
:10E47000092E000C660B770B6BBFFA0147914D9389
:10E4800001963A12F4CF10921C0320E2422E27E0AC
:10E49000522E0CC064E071E080E090911C030E9459
:10E4A000ACF180911C038F5F80931C0380911C034F
:10E4B000883708F06DC0A89504E012E00E9431F0A2
:10E4C000F80181938F01F3E00C311F07B9F75F92D8
:10E4D0004F9284E0882E82E0982EA12CB12CC12C82
:10E4E000D12C90E1E92EFF24F3940CE012E024E01B
:10E4F00034E04CE153E0BE016F5F7F4F84E091E078
:10E500000E942BF690911D03892B80931D030F9081
:10E510000F90882309F4BECFA8950E946EF0A895AD
:10E5200060E273E080E099E70E94ACF1A89560E2B8
:10E5300074E080E09AE70E94ACF1A89560E275E093
:10E5400080E09BE70E94ACF1A89560E276E080E075
:10E550009CE70E94ACF180E090E0DC0123E0A8950C
:10E5600007B600FCFDCFF999FECFFC01A0935B003C
:10E5700020935700E8959F5FAF4FBF4F811538E755
:10E580009307A105B10559F70E946EF00E948BF028
:10E59000A895F30111923F013E12FBCF60E273E0B8
:10E5A00080E099E70E94ACF160E274E080E09AE7D5
:10E5B0000E94ACF160E275E080E09BE70E94ACF164
:10E5C00060E276E080E09CE70E94ACF180911E035F
:10E5D00090911F03892B31F06EE173E080E098E7A2
:10E5E0000E94ACF107B600FCFDCFF999FECF81E1A6
:10E5F00080935700E895C8CF089564E00E948CF698
:10E6000008950F931F93CF93DF93EC018B01CA0101
:10E61000A0E0B0E04CAD5DAD6EAD7FAD48275927B1
:10E620006A277B274CAF5DAF6EAF7FAFCE010E94F4
:10E63000FDF2D801FE01CE0188964D915D916D915C
:10E640007D910081118122813381402751276227EA
:10E6500073274193519361937193E817F90769F711
:10E66000DF91CF911F910F910895A4E0B0E0EBE30B
:10E67000F3EF0C9455FB7C01FC0184AD95ADA6AD88
:10E68000B7ADF2E08F27F70184AF95AFA6AFB7AF74
:10E69000C7014B835C8369837A830E94FDF24B81BF
:10E6A000E42F5C81F52F6981C62E7A81D72ECF01A8
:10E6B00088960191119121913191D7014D915D91F0
:10E6C0006D917C91139740275127622773274D93B3
:10E6D0005D936D937D937D01D6014D935D936D9315
:10E6E0007D936D01E817F90721F72496E8E00C9473
:10E6F00071FB0F931F93CF93DF93EC018A0188E2A4
:10E70000FE0111928A95E9F7CE010E949BFBFE0162
:10E71000E00FF11F81E080838FA180688FA3DF91DC
:10E72000CF911F910F9108950F931F93CF93DF9374
:10E73000FC01DB0108E81AE62FE334E200831183D1
:10E7400022833383EA01088119812A813B81048372
:10E750001583268337834C815D816E817F8140875D
:10E7600051876287738743ED58E063EA75E8448711
:10E770005587668777874D915D916D917C91139751
:10E78000408B518B628B738B14964D915D916D9183
:10E790007C911797448B558B668B778B18964D9190
:10E7A0005D916D917C911B97408F518F628F738F1C
:10E7B0001C968D919D910D90BC91A02D848F958F6D
:10E7C000A68FB78F8EE29AE8A9E1B3E180A391A367
:10E7D000A2A3B3A384E493E7A0E7B3E084A395A343
:10E7E000A6A3B7A38AE793E5AFE4B5E280A791A714
:10E7F000A2A7B3A788E49DE1A3E5B8E384A795A702
:10E80000A6A7B7A783E89EE6ACE9B3E880AB91ABD7
:10E81000A2ABB3AB85EE9AE3AAE7B9EF84AB95ABB5
:10E82000A6ABB7AB89E59BEFAAEEB1E184AF95AF9C
:10E83000A6AFB7AF8CE098E5A5E9BCE980AF91AF92
:10E84000A2AFB3AFCF010E94FDF2DF91CF911F9134
:10E850000F910895A8E2B0E0E0E3F4EF0C9455FBCB
:10E860006C017B018A01452BE9F00832110560F04B
:10E8700041E050E0B701C6010E9401F308521109BE
:10E8800088E2E80EF11CF1CFA801B701CE01019694
:10E890000E9479F341E050E0BE016F5F7F4FC601F7
:10E8A0000E9401F3A896E8E00C9471FBA8E2B0E0A6
:10E8B000ECE5F4EF0C9453FB5C017B016A018901E8
:10E8C000232B29F10832110570F0A601B701C5010B
:10E8D0000E9435F30852110988E2C80ED11C88E263
:10E8E000E80EF11CEFCFA801B601CE0101960E94FF
:10E8F00079F3AE014F5F5F4FBA01C5010E9435F356
:10E90000A801BE016F5F7F4FC7010E949BFBA896C5
:10E91000EAE00C946FFBACE0B0E0E1E9F4EF0C94BA
:10E920004FFB4C015B017A016901232B09F4C6C03E
:10E93000F40184AD95ADA6ADB7AD22E08227F40118
:10E9400084AF95AFA6AFB7AFC401F8E2CF16D1043C
:10E9500058F10E94FDF23701C501D401F8E2EF0E33
:10E96000F11CF30101911191219131913F014D91E0
:10E970005D916D917C9113974027512762277327F2
:10E98000FC014193519361937193CF010D931D93BA
:10E990002D933D936E147F0421F7F8E2CF1AD1082E
:10E9A00028E2A20EB11CC4CF0E94FDF2F601EC7F5A
:10E9B000E80DF91D86010370112733E0000F111FC8
:10E9C0003A95E1F721E030E040E050E060E070E0AF
:10E9D00080E090E00E9482FB2D833E834F83588726
:10E9E00069877A878B879C8780819181A281B38197
:10E9F0002D813E814F81588582279327A427B527F3
:10EA000080839183A283B383F40184A195A1A6A1FD
:10EA1000B7A1B05884A395A3A6A3B7A33401D70187
:10EA200080E090E024E0C216D104F0F00D911D9139
:10EA30002D913D91F3014081518162817381402785
:10EA4000512762277327F501419351936193719385
:10EA50005F01F30101931193219331933F01F4E09E
:10EA6000CF1AD1080196DECF880F991F880F991F02
:10EA7000880E991EF401408151816281738149831E
:10EA80005A836B837C83CE010196CA0EDB1EAC15C4
:10EA9000BD0559F03D91FC0120812327F50121930B
:10EAA0005F01FC013193CF01F2CF89819A81AB8163
:10EAB000BC81F40180839183A283B3832C96EEE022
:10EAC0000C946BFBA8E2B0E0E8E6F5EF0C9455FB84
:10EAD0006C017B018A01452BE9F00832110560F0D9
:10EAE00044E050E0B701C6010E9401F30852110949
:10EAF00088E2E80EF11CF1CFA801B701CE01019622
:10EB00000E9479F344E050E0BE016F5F7F4FC60181
:10EB10000E9401F3A896E8E00C9471FBA8E2B0E033
:10EB2000E4E9F5EF0C9457FB8C017B01FC0184AD0B
:10EB300095ADA6ADB7ADF8E08F27F80184AF95AFDE
:10EB4000A6AFB7AFC8010E94FDF2C8010E94FDF256
:10EB5000D801FE0131969E01275D3F4FCF014D91B7
:10EB60005D916D917D914193519361937193E21702
:10EB7000F307A9F720E1FC01D70101900D922A9536
:10EB8000E1F728E2FC0111922A95E9F780E4F80107
:10EB900011928A95E9F7A896E6E00C9473FBFB01C5
:10EBA000BC01605F7F4F20E030E0DC014D91CD0182
:10EBB00051914527242BA617B707B9F7C90101972B
:10EBC000892F99278170992701970895A2E4B0E0D1
:10EBD000ECEEF5EF0C944BFB3C011B012A01A40168
:10EBE00069966EAD7FAD6997CE0101964C01229674
:10EBF0002FAF229723963FAF23970E9494F322963C
:10EC00002FAD229723963FAD2397A901B201C401EE
:10EC10000E942AF49701A801B301C4010E9456F48E
:10EC2000A501B601C4010E9462F5B3016E0D7F1DFE
:10EC3000C4010E948EF590E1E90EF11CF101F18210
:10EC4000E08280E4F40111928A95E9F7CE5BDF4F10
:10EC5000E2E10C9467FBA2E5B0E0E1E3F6EF0C948F
:10EC60004BFBFA0140E1E416F10408F44EC0A401A4
:10EC7000450126011701580139017F0163967FAFD5
:10EC80006EAF63976C01A9966EAD7FADA9978E01AB
:10EC90000F5F1F4FC8010E9494F3A301B701C80181
:10ECA0000E942AF4710180E1E81AF1089701A50198
:10ECB000B601C8010E948BF4A401B201C8010E94F0
:10ECC00062F5BE016F5B7F4FC8010E948EF56396AF
:10ECD000EEADFFAD6397F182E082BE016F5B7F4FC7
:10ECE000C5018E0D9F1D0E94CFF55C01892B31F06F
:10ECF000A70160E070E0C6010E94A4FB80E4F80177
:10ED000011928A95E9F7C50102C08FEF9FEFCE5AA5
:10ED1000DF4FE2E10C9467FB2F923F924F925F929C
:10ED20006F927F928F929F92AF92BF92CF92DF921B
:10ED3000EF92FF920F931F93CF93DF93FC01D62E98
:10ED400020803180428053806480758086809780E7
:10ED5000A084B184C284208931894289538960A109
:10ED600071A182A193A1A0A9B1A9C2A9D3A90101AE
:10ED700022260222000C2024A22533261322111C55
:10ED80003124B325020144260422001C4024C4255A
:10ED900055261522111C5124D5250B016B270B225A
:10EDA000000C602526277C271C22111C7125372783
:10EDB0000C018D270D22001C802548279A271A2236
:10EDC000111C91255927022E069457954795379582
:10EDD0002795022E06945795479537952795022E2D
:10EDE00006945795479537952795010123260322C9
:10EDF000000C2024B22534261422111C3124C325F2
:10EE0000020145260522001C4024D4255226122248
:10EE1000111C5124A5250B016D270D22000C602526
:10EE200036277A271A22111C712547270C018B27B8
:10EE30000B22001C802558279C271C22111C912581
:10EE40002927022E001C331F441F551F221F308B01
:10EE5000418B528B238B60A371A382A393A3D0AB6E
:10EE6000A1ABB2ABC3AB248935894689578964A16C
:10EE700075A186A197A1A4A9B5A9C6A9D7A903017F
:10EE800062260222000C6024A62573261322111C80
:10EE90007124B725040184260422001C8024C8257F
:10EEA00095261522111C9124D9250B016B270B22C5
:10EEB000000C602526277C271C22111C7125372772
:10EEC0000C018D270D22001C802548279A271A2225
:10EED000111C91255927022E069457954795379571
:10EEE0002795022E06945795479537952795022E1C
:10EEF0000694579547953795279503016326032276
:10EF0000000C6024B62574261422111C7124C72518
:10EF1000040185260522001C8024D8259226122271
:10EF2000111C9124A9250B016D270D22000C6025D1
:10EF300036277A271A22111C712547270C018B27A7
:10EF40000B22001C802558279C271C22111C912570
:10EF50002927022E001C331F441F551F221F348BEC
:10EF6000458B568B278B64A375A386A397A3D4AB3D
:10EF7000A5ABB6ABC7AB1385208D318D428D538DBC
:10EF800060A571A582A593A5A0ADB1ADC2ADD3AD6D
:10EF90000501A2260222000CA024AA25B3261322D2
:10EFA000111CB124BB250C2CC4260422001CC02437
:10EFB000CC25112E15271522111C1125D1270B0147
:10EFC0006B270B22000C602526277C271C22111C96
:10EFD000712537270C018D270D22001C802548271D
:10EFE0009A271A22111C91255927022E069457950B
:10EFF000479537952795022E06945795479537954F
:10F000002795022E06945795479537952795050124
:10F01000A3260322000CA024BA25B4261422111C16
:10F02000B124CB250C2CC5260522001CC024DC25D0
:10F03000112E12271222111C1125A1270B016D2759
:10F040000D22000C602536277A271A22111C712503
:10F0500047270C018B270B22001C802558279C2753
:10F060001C22111C91252927022E001C331F441F2E
:10F07000551F221F1387308F418F528F238F60A718
:10F0800071A782A793A7D0AFA1AFB2AFC3AFE484FB
:10F09000F58406851785248D358D468D578D64A59D
:10F0A00075A586A597A5A4ADB5ADC6ADD7AD07012D
:10F0B000E2260222000CE024AE25F3261322111CC6
:10F0C000F124BF25080104270422001C0025C027C5
:10F0D00015271522111C1125D1270B016B270B2297
:10F0E000000C602526277C271C22111C7125372740
:10F0F0000C018D270D22001C802548279A271A22F3
:10F10000111C91255927022E06945795479537953E
:10F110002795022E06945795479537952795022EE9
:10F12000069457954795379527950701E3260322BF
:10F13000000CE024BE25F4261422111CF124CF2556
:10F14000080105270522001C0025D02712271222BE
:10F15000111C1125A1270B016D270D22000C602524
:10F1600036277A271A22111C712547270C018B2775
:10F170000B22001C802558279C271C22111C91253E
:10F180002927022E001C331F441F551F221FE4860F
:10F19000F58606871787348F458F568F278F64A78C
:10F1A00075A786A797A7248935894689578960A5B9
:10F1B00071A582A593A5010122260222000C20241C
:10F1C000D22533261322111C3124A3250201442603
:10F1D0000422001C4024B42555261522111C51245C
:10F1E000C5250B016A270A22000C602526277B27EC
:10F1F0001B22111C712537270C018C270C22001CA7
:10F20000802548279D271D22111C91255927022E54
:10F2100006945795479537952795022E069457954E
:10F22000479537952795022E06945795479537951C
:10F230002795010123260322000C2024A225342631
:10F240001422111C3124B325020145260522001C7D
:10F250004024C42552261222111C5124D5250B010D
:10F260006C270C22000C602536277D271D22111CDF
:10F27000712547270C018A270A22001C8025582760
:10F280009B271B22111C91252927022E001C331FAE
:10F29000441F551F221F348B458B568B278B60A72D
:10F2A00071A782A793A7C4AFD5AFA6AFB7AF208D84
:10F2B000318D428D538D64A575A586A597A5A0A90E
:10F2C000B1A9C2A9D3A9030162260222000C6024BD
:10F2D000A62573261322111C7124B7250401842648
:10F2E0000422001C8024C82595261522111C912477
:10F2F000D9250B016B270B22000C602526277C27C4
:10F300001C22111C712537270C018D270D22001C92
:10F31000802548279A271A22111C91255927022E49
:10F3200006945795479537952795022E069457953D
:10F33000479537952795022E06945795479537950B
:10F340002795030163260322000C6024B62574264A
:10F350001422111C7124C725040185260522001CD6
:10F360008024D82592261222111C9124A9250B0154
:10F370006D270D22000C602536277A271A22111CD2
:10F38000712547270C018B270B22001C802558274D
:10F390009C271C22111C91252927022E001C331F9B
:10F3A000441F551F221F308F418F528F238F64A718
:10F3B00075A786A797A7D0ABA1ABB2ABC3AB13859C
:10F3C000248D358D468D578D60A171A182A193A1A9
:10F3D000A4A9B5A9C6A9D7A90501A2260222000C95
:10F3E000A024AA25B3261322111CB124BB250C2C62
:10F3F000C4260422001CC024CC25112E152715225A
:10F40000111C1125D1270B016B270B22000C602545
:10F4100026277C271C22111C712537270C018D27DC
:10F420000D22001C802548279A271A22111C91259D
:10F430005927022E06945795479537952795022E02
:10F4400006945795479537952795022E069457951C
:10F450004795379527950501A3260322000CA02484
:10F46000BA25B4261422111CB124CB250C2CC52698
:10F470000522001CC024DC25112E12271222111C8B
:10F480001125A1270B016D270D22000C60253627C1
:10F490007A271A22111C712547270C018B270B2272
:10F4A000001C802558279C271C22111C91252927E8
:10F4B000022E001C331F441F551F221F1387348F39
:10F4C000458F568F278F60A371A382A393A3D4ABDC
:10F4D000A5ABB6ABC7ABE484F58406851785208958
:10F4E00031894289538964A175A186A197A1A0ADF4
:10F4F000B1ADC2ADD3AD0701E2260222000CE0247B
:10F50000AE25F3261322111CF124BF250801042780
:10F510000422001C0025C02715271522111C1125C7
:10F52000D1270B016B270B22000C602526277C2797
:10F530001C22111C712537270C018D270D22001C60
:10F54000802548279A271A22111C91255927022E17
:10F5500006945795479537952795022E069457950B
:10F56000479537952795022E0694579547953795D9
:10F5700027950701E3260322000CE024BE25F4268C
:10F580001422111CF124CF25080105270522001C97
:10F590000025D02712271222111C1125A1270B01AB
:10F5A0006D270D22000C602536277A271A22111CA0
:10F5B000712547270C018B270B22001C802558271B
:10F5C0009C271C22111C91252927022E001C331F69
:10F5D000441F551F221FE486F58606871787308B48
:10F5E000418B528B238B64A375A386A397A3D0AFC3
:10F5F000A1AFB2AFC3AFDA9409F0ADCB20823182B4
:10F60000428253826482758286829782A086B18606
:10F61000C2861124DF91CF911F910F91FF90EF903F
:10F62000DF90CF90BF90AF909F908F907F906F9022
:10F630005F904F903F902F900895F8940E946EF045
:10F640000E9413F00E9440F084B1837F84B985B199
:10F650008C6085B90E94DDF02FEF88E09DE321509A
:10F6600080409040E1F700C000001A9905C085E590
:10F670000E9424F00E94F8F11B9905C082E50E94C7
:10F6800024F00E94EEF082E40E9424F00E9485F1B2
:10F6900080E090E008952F923F924F925F926F9298
:10F6A0007F928F929F92AF92BF92CF92DF92EF9212
:10F6B000FF920F931F93CF93DF93CDB7DEB7CA1B93
:10F6C000DB0B0FB6F894DEBF0FBECDBF09942A88BE
:10F6D000398848885F846E847D848C849B84AA8466
:10F6E000B984C884DF80EE80FD800C811B81AA81F3
:10F6F000B981CE0FD11D0FB6F894DEBF0FBECDBFBE
:10F70000ED0108950F93083090F0982F872F762FF2
:10F71000652F542F432F322F22270850F4CF220F6A
:10F72000331F441F551F661F771F881F991F0A9597
:10F73000B2F70F910895FB01DC0102C001900D9218
:10F7400041505040D8F70895DC0101C06D934150FD
:06F750005040E0F70895AF
:04F756006DF0FCF264
:10FFE000E64BB98B4C308ADD5647D5B395DD97EE9D
:10FFF00016551F8A28BD70E5629E5017E7D73895C1
:040000031000E00009
:00000001FF
