:10000000000000000000000082EBE3B7948F69F26B
:100010005D23362601B2D0471C95B899A8606821A7
:10002000AFA988A74DC6C31746D9772C44323C3AAE
:10003000780665BCB17881A16346780576419687DC
:10004000CE6753B180E39A12E3809596FEFE00845A
:10005000C17ABD8B417F2270DB5D01C334744FB424
:10006000A1BD0D2AF49341016F26CC89DFCEEF9418
:1000700085601E40E9ADB26ADF74B4619A09B9CDFA
:1000800040BFE384F146496FFCEDF2FD86CA9AB8A1
:00000001FF
