:020000021000EC
:10E0000014BE88E1809360001092600088C0000018
:10E0100000000000000000000000010001140000EA
:10E0200000000000000000000001000114000000DA
:10E0300000000000000000000100011400000000CA
:10E0400000000000000000010001140000000000BA
:10E0500000000000000001000114000000000000AA
:10E06000000000000001000114000000000000009A
:10E07000000000000100011400000000000000008A
:10E08000000000010001140000000000000000007A
:10E09000000001000114000000000000000000006A
:10E0A000000100011400000000000000000000005A
:10E0B0000100011400000000000000000000000149
:10E0C000000114000000000000000000000001003A
:10E0D000011400000000000000000000000000012A
:10E0E00014000000000000000000010001140114F1
:10E0F00000000000000000000001000114002312D5
:10E10000BB2FA028A9D05B35897DFBE65EF77EF0AA
:10E1100059E0D384E524E49E975F9DBE3E8A21E0CA
:10E12000A0E0B1E001C01D92A53FB207E1F70C9459
:10E1300007FD1092CD008AE08093CC00E8ECF0E07F
:10E1400080818D7F808388E18093C90086E0809301
:10E15000CA0008959091C80095FFFCCF8093CE002F
:10E1600008958091C800881F8827881F089580918E
:10E17000C80087FFFCCF8091CE0008958091C80031
:10E1800087FF03C08091CE00F9CF0895CF93DF932E
:10E19000EC018991882319F00E94AAF0FACF0E941D
:10E1A000AAF0DF91CF9108951092C5008AE0809384
:10E1B000C400E0ECF0E080818D7F808388E1809373
:10E1C000C10086E08093C20008959091C00095FF41
:10E1D000FCCF8093C60008958091C000881F8827D7
:10E1E000881F08958091C00087FFFCCF8091C600F2
:10E1F00008958091C00087FF03C08091C600F9CFC9
:10E200000895CF93DF93EC018991882319F00E9440
:10E21000E5F0FACF0E94E5F0DF91CF910895EF92FB
:10E22000FF920F931F93CF93DF93EC017C0184E166
:10E23000E80EF11C08E210E0C8010E94AAFDF701F7
:10E2400081937F010F5F1F4F08331105A9F700E08D
:10E2500010E0C801805B9F4F0E94AAFD89930F5F69
:10E260001F4F04311105A9F7CDB7DEB7E6E00C94D6
:10E2700092FD0F931F93CF93DF938C01C0E0D0E00A
:10E28000F80161918F01CE01805B9F4F0E94B8FD24
:10E290002196C431D105A1F7DF91CF911F910F9144
:10E2A0000895A89508950F931F938B019C01042E48
:10E2B00004C0000F111F221F331F0A94D2F741958B
:10E2C0004F7104C096958795779567954A95D2F7D3
:10E2D000602B712B822B932B1F910F9108950E941D
:10E2E00063FD08958F929F92AF92BF92CF92DF927B
:10E2F000EF92FF920F931F934B015C0180949094D7
:10E30000A094B09467017801C820D920EA20FB20AE
:10E31000DC01CB0182239323A423B523BC01CD01CF
:10E320006C257D258E259F251F910F91FF90EF90E5
:10E33000DF90CF90BF90AF909F908F9008958F9275
:10E340009F92AF92BF92CF92DF92EF92FF920F9384
:10E350001F934701580182269326A426B526DC0187
:10E36000CB0188219921AA21BB2159016A01AE2044
:10E37000BF20C022D122BC01CD016A257B258C257E
:10E380009D251F910F91FF90EF90DF90CF90BF9050
:10E39000AF909F908F900895AF92BF92CF92DF92EF
:10E3A000EF92FF920F931F9359016A01AE24BF248D
:10E3B000C026D1266A257B258C259D251F910F918E
:10E3C000FF90EF90DF90CF90BF90AF900895FC0149
:10E3D00081E093E2A5E4B7E680839183A283B383CF
:10E3E00089E89BEAADECBFEE84839583A683B7836F
:10E3F0008EEF9CEDAAEBB8E980879187A287B3875F
:10E4000086E794E5A2E3B0E184879587A687B7877E
:10E4100080EF91EEA2EDB3EC808B918BA28BB38B4E
:10E42000148A158A168A178A108E118E128E138EF0
:10E43000A8950895A8E7B0E0E0E2F2EF0C946AFD39
:10E440008C0189E999E7A2E8BAE569968CAF9DAF9E
:10E45000AEAFBFAF699781EA9BEEA9EDBEE66D96C0
:10E460008CAF9DAFAEAFBFAF6D978CED9CEBABE1CA
:10E47000BFE8A1968CAF9DAFAEAFBFAFA19786EDC1
:10E4800091ECA2E6BAECA5968CAF9DAFAEAFBFAF54
:10E49000A597A8956B019E012F5F3F4F79015E0103
:10E4A00031E4A30EB11CD6016D917D918D919D91AA
:10E4B0006D010E946FF1F7016193719381939193C4
:10E4C0007F01A895EA15FB0571F7D8013C911196DB
:10E4D0002C91119712969C91129713968C911397E9
:10E4E000308321839283838314967C9114971596AD
:10E4F0006C91159716965C91169717964C911797F5
:10E5000074836583568347831896BC91F801A1856F
:10E5100032842384F701B087A18732862386F801ED
:10E52000A484B584C684D784F701A486B586C6863C
:10E53000D786F8016088718882889388E1966CAEEE
:10E540007DAE8EAE9FAEE197F701608A718A828AB6
:10E55000938AA89525013601A696BFAFA697A796E0
:10E56000AFAFA797A8963FAEA897A9962FAEA99749
:10E57000872E962EA52EB42EAA963FAFAA97AB96BD
:10E580002FAFAB97AC969FAFAC97AD968FAFAD97D3
:10E5900020E054E1352E322F3F702031A8F4750170
:10E5A0006401C094D094E094F094C420D520E62077
:10E5B000F720A9968CAD9DADAEADBFADA9978821D2
:10E5C0009921AA21BB2179C0E32FF0E0CC24C39488
:10E5D000D12CCC0EDD1E44E0349FC00CD11C112484
:10E5E0007F01D7011D96AF70BB27AA0FBB1FAA0FD3
:10E5F000BB1F61E070E06C0F7D1FA60FB71F389640
:10E60000EF70FF27EE0FFF1FEE0FFF1FE60FF71F44
:10E610004D915D916D917C9180819181A281B381B9
:10E6200084279527A627B727F6014081518162816B
:10E63000738184279527A627B727F7013296EF70B5
:10E64000FF27EE0FFF1FEE0FFF1F41E050E04C0FC2
:10E650005D1FE40FF51F4081518162817381842722
:10E660009527A627B727880F991FAA1FBB1F811DB3
:10E67000F60180839183A283B383A895243108F4A3
:10E680008ECF88ED820F8431E8F4A996CCACDDAC56
:10E69000EEACFFACA997C424D524E624F724C82007
:10E6A000D920EA20FB20A9968CAD9DADAEADBFADC3
:10E6B000A99784219521A621B721C826D926EA2623
:10E6C000FB2610C075016401C424D524E624F72478
:10E6D000A9964CAD5DAD6EAD7FADA997C426D5268C
:10E6E000E626F726A895822F632D0E9435FDA5E525
:10E6F000B0E0AC0FBD1F54E0859FA00DB11D1124EB
:10E70000E1E0F0E0EC0FFD1F64E0369FE00DF11D4D
:10E7100011244D915D916D917C9180819181A281B7
:10E72000B381480F591F6A1F7B1FE9964CAF5DAF3D
:10E730006EAF7FAFE997AD968CAD9DADAEADBFAD81
:10E74000AD973BE1B695A795979587953A95D1F703
:10E75000AD964CAD5DAD6EAD7FADAD97E5E0440FD0
:10E76000551F661F771FEA95D1F7842B952BA62B93
:10E77000B72BE9964CAD5DAD6EAD7FADE997840FDB
:10E78000951FA61FB71FC80ED91EEA1EFB1EE196D5
:10E790004CAD5DAD6EAD7FADE197C40ED51EE61EEE
:10E7A000F71EB501A401F2E0769567955795479558
:10E7B000FA95D1F7D501C4013EE1880F991FAA1F30
:10E7C000BB1F3A95D1F7842B952BA62BB72BA89579
:10E7D0002F5FAD968CAC9DACAEACBFACAD97E19667
:10E7E0004CAE5DAE6EAE7FAEE197203599F0AD9642
:10E7F000CCAEDDAEEEAEFFAEAD97A9964CAC5DAC47
:10E800006EAC7FACA997A9968CAF9DAFAEAFBFAFF2
:10E81000A997C1CEA9962CAD3DAD4EAD5FADA997E0
:10E8200061962CAF3DAF4EAF5FAF61972D968CAF29
:10E830009DAFAEAFBFAF2D9729968CAE9DAEAEAE5D
:10E84000BFAE29972596CCAEDDAEEEAEFFAE2597D6
:10E8500065964CAE5DAE6EAE7FAE6597FE01EF5B2A
:10E86000FF4FD801C8014496419151916191719136
:10E87000CD90DD90ED90FC9013974C0D5D1D6E1DBD
:10E880007F1D4D935D936D937D93A895A817B90750
:10E8900059F7D80154962C91549755963C91559719
:10E8A00056964C91569757965C91579758966C91FF
:10E8B000589759967C9159975A968C915A975B968E
:10E8C0009C915B973E5F4F4F5F4F6F4F7F4F8F4FD6
:10E8D0009F4F54962C93549755963C935597569624
:10E8E0004C93569757965C93579758966C935897B6
:10E8F00059967C9359975A968C935A975B969C930A
:10E90000C858DF4FE2E10C9486FDA0E4B0E0EBE8EC
:10E91000F4EF0C946AFD4C011B013A01CE01019603
:10E920002C0180E4F20111928A95E9F7611492E0DA
:10E93000790650F0B101C4010E941AF2F2E07F1A88
:10E9400080E4280E311CF2CF930140E050E060E0FB
:10E9500070E080E090E0F401A488B588C688D7888C
:10E96000E08CF18C028D138D0E94A1FD248B358BE0
:10E97000468B578B608F718F828F938F9301295FA6
:10E980003F4F93E0369527959A95E1F740E0842F25
:10E9900090E08217930758F4F201E80FF91FD101B4
:10E9A000A80FB91F8C918083A8954F5FF0CFF3011A
:10E9B00083E0F695E7958A95E1F7E40DF51D93015F
:10E9C0002770332780E890E002C0959587952A95B7
:10E9D000E2F79081892B8083F0EC6F16F1E07F06DF
:10E9E00040F4D4015C96FE01F996CE018F5B9F4FF7
:10E9F00024C0B201C4010E941AF2F40124893589AD
:10EA000046895789608D718D828D938D3250410971
:10EA100051096109710981099109248B358B468B54
:10EA2000578B608F718F828F938FF20180E4840DFA
:10EA30001192A8958E13FCCFD4CF2E912193A89537
:10EA4000E817F907D1F7B201C4010E941AF2C05CBD
:10EA5000DF4FE2E10C9486FDEF92FF920F931F933C
:10EA6000CF93DF93EB018C017B0184E1E80EF11C75
:10EA700069917991899199910E946FF1F80161935F
:10EA80007193819391938F01A895CE15DF0581F73E
:10EA9000CDB7DEB7E6E00C9492FDA0E2B0E0E3E58E
:10EAA000F5EF0C9476FD7C018B01CE0101962D8F44
:10EAB0003E8F4F8F58A30E94E7F12D8D3E8D4F8DD5
:10EAC00058A1DA01C90188279E7F892B8A2B8B2BBD
:10EAD00099F0B801CE0101962D8F3E8F4F8F58A32C
:10EAE0000E941AF2005C1F4F2D8D3E8D4F8D58A154
:10EAF000325041095109E5CFA901B801CE01019673
:10EB00000E9485F4BE016F5F7F4FC7010E942CF504
:10EB1000A096E6E00C9492FD2EE031EEDC015096DA
:10EB2000A901032E000C660B770B6BBFFA0147910E
:10EB3000FC014193CF012F5F3F4FEA17FB0781F79D
:10EB400008952EEF30EEDC015096A901032E000C43
:10EB5000660B770B6BBFFA014791FC014193CF0124
:10EB60002F5F3F4FEA17FB0781F7089520E1829F4F
:10EB7000C0011124860F911D825F9F41092E000C58
:10EB8000AA0BBB0BABBFFC0187910895A895089514
:10EB9000282FFC018E2F821B861718F41192A8953E
:10EBA000F9CF08950F93CF93E0E0F0E050E030E02C
:10EBB000E01778F4DF01A40FB51FA80FB91FCC919F
:10EBC000DF01A20FB31FA60FB71FCC93A8953196F4
:10EBD000EFCFCF910F910895CF93DF93382FDB01C3
:10EBE000EA01FC018E2F831B821730F481919D91E5
:10EBF00089278993A895F6CFDF91CF91089586272D
:10EC0000089590E02BE1662351F060FD982787FF7F
:10EC100003C0880F822701C0880F6695F4CF892F23
:10EC20000895A3E2B0E0E7E1F6EF0C946AFD7C0101
:10EC30001B018E010F5E1F4F60E1C8010E94C8F5E5
:10EC400067012EE040E1400F49A360E1CE0101964B
:10EC50002BA30E94C8F5D6019D916D012BA19111A6
:10EC60000EC0215090F760E1C1010E94C8F55FE03D
:10EC7000E50EF11CC101F80130E1300F34C0FE0196
:10EC800031965F01F0E12F9F300111244501412CA5
:10EC9000512CA201460D571D425F5F41052E000C0D
:10ECA000660B770B6BBFFA018791692F2BA39AA391
:10ECB0000E9401F6D4018D934D01A895BFEF4B1A28
:10ECC0005B0A2BA19AA1E0E14E16510411F7F8015D
:10ECD000D5018D915D01908189278193A89549A1E6
:10ECE0004E13F6CFBECFD7012D917D014191242740
:10ECF000DC012D93CD01A8953E13F5CFA396E2E15B
:10ED00000C9486FDA0E0B0E0E8E8F6EF0C946CFD12
:10ED10004C016B017A016FE1CA010E94C8F5C0E0A5
:10ED2000D0E0360180E1680E711C260187010C0FCE
:10ED30001D1F5401AC0EBD1EF20161912F01F501A2
:10ED400080810E9401F6F8019081892781938F01CB
:10ED5000A8954614570481F72196C031D10529F7AB
:10ED6000CDB7DEB7E0E10C9488FD6F927F928F9271
:10ED70009F92AF92BF92CF92DF92EF92FF920F934A
:10ED8000CF93DF93CDB7DEB7A4970FB6F894DEBF6D
:10ED90000FBECDBF7C0160E1CE0145960E94C8F553
:10EDA000670184E2C80ED11C4701E4E48E0E911C79
:10EDB0003701F4E16F0E711C20EA30E040E050E0D2
:10EDC000B701CE0101960E944DF500E120E040E040
:10EDD000B601CE0101960E94D2F55701F50180815E
:10EDE0008F5F81935F01E615F705C1F720EA30E0F8
:10EDF00040E050E0B701CE0101960E944DF504E1DC
:10EE000020E040E0B701CE0101960E94D2F520E15A
:10EE1000AE014B5E5F4FB601CA010E94ECF5F0E116
:10EE2000CF0ED11CC814D90439F6C7010E9439F19C
:10EE300020E1A601B501CE0145960E94ECF5A4960D
:10EE40000FB6F894DEBF0FBECDBFDF91CF910F910B
:10EE5000FF90EF90DF90CF90BF90AF909F908F90FA
:10EE60007F906F900895AFE3B0E0E9E3F7EF0C9483
:10EE700074FD6C018B0160E1CE0180960E94C8F5A3
:10EE8000780184E2E80EF11C0C5A1F4FAE014F5F6F
:10EE90005F4FB701C6010E9482F6BE01605D7F4FE1
:10EEA000CE0101960E9411F620E1AE01405E5F4F57
:10EEB000BE01605D7F4FCA010E94ECF580E1E80E63
:10EEC000F11CE016F10611F700E120E040E0B70187
:10EED000CE0180960E94D2F5EF96E8E00C9490FD6A
:10EEE000A0E0B0E0E6E7F7EF0C9474FD7C01EB01E5
:10EEF0008B010C5D1F4F6B0184E5C80ED11C60E1D6
:10EF0000C8010E94C8F5A895005F1F4F0C151D058C
:10EF1000B1F7CE010E94B5F6BE01C7010E9433F7DA
:10EF2000CDB7DEB7E8E00C9490FD8F929F92AF9240
:10EF3000BF92DF92EF92FF920F931F93CF93DF93D5
:10EF4000CDB7DEB7C457D1090FB6F894DEBF0FBEF8
:10EF5000CDBF4C015B017A01D22ECE018B5B9F4F5E
:10EF60000E948CF5CE01C5960E94A1F56D2DC501BC
:10EF70000E94C8F510E084E5E80EF11C1D1508F0AC
:10EF800056C000E120E040E0BE016F5F7F4FC70147
:10EF90000E94D2F520E140E0BE016F5F7F4FCE01BD
:10EFA000C5960E94D2F520E031E040E050E0BE017D
:10EFB0006F5F7F4FCE0181960E944DF520E0412F7B
:10EFC000BE016B597F4FC4010E94D2F520E1AE0112
:10EFD0004B5A5F4FBE016B597F4FCE0181960E9405
:10EFE000ECF5212F40E0B501CE018B5A9F4F0E94D6
:10EFF000D2F520E140E0BE016F5F7F4FCE018B5B19
:10F000009F4F0E94D2F520E031E040E050E0BE0189
:10F010006F5F7F4FCE0181960E944DF520E040E06A
:10F02000B701CE0181960E94D2F5105FA7CFCC58D0
:10F03000DF4F0FB6F894DEBF0FBECDBFDF91CF918B
:10F040001F910F91FF90EF90DF90BF90AF909F9036
:10F050008F9008958F929F92AF92BF92DF92EF921E
:10F06000FF920F931F93CF93DF93CDB7DEB7C457B3
:10F07000D1090FB6F894DEBF0FBECDBF4C015B01C6
:10F080007A01D22ECE018B5B9F4F0E948CF5CE0170
:10F09000C5960E94A1F56D2DC5010E94C8F510E02E
:10F0A00084E5E80EF11C1D1508F056C000E120E0D3
:10F0B00040E0BE016F5F7F4FC7010E94D2F520E1A3
:10F0C00040E0BE016F5F7F4FCE01C5960E94D2F532
:10F0D00020E031E040E050E0BE016F5F7F4FCE01A5
:10F0E00081960E944DF520E0412FBE016B597F4F64
:10F0F000C4010E94D2F520E1AE014B5A5F4FBE0120
:10F100006B597F4FCE0181960E94ECF5212F40E094
:10F11000B501CE018B5A9F4F0E94D2F520E140E00D
:10F12000BE016F5F7F4FCE018B5B9F4F0E94D2F578
:10F1300020E031E040E050E0BE016F5F7F4FCE0144
:10F1400081960E944DF520E040E0B701CE01819606
:10F150000E94D2F5105FA7CFCC58DF4F0FB6F894BE
:10F16000DEBF0FBECDBFDF91CF911F910F91FF90FA
:10F17000EF90DF90BF90AF909F908F900895EF92A7
:10F18000FF920F931F93CF938C01C0E0F801808111
:10F19000C81760F47801EC0EF11CF70181810E9420
:10F1A000AAF0F7011182A895CF5FF0CFCF911F9100
:10F1B0000F91FF90EF900895EF92FF920F931F939E
:10F1C000CF938C01FC016083C0E0F8018081C817F7
:10F1D00060F47801EC0EF11CF70111820E94B7F087
:10F1E000F7018183A895CF5FF0CFCF911F910F9149
:10F1F000FF90EF900895282FDB01FC018E2F821BDA
:10F20000841730F491918D91981304C0A895F6CF8E
:10F2100081E0089580E008950F931F93FC01E60FAD
:10F22000F11D23816081862F90E0A0E0B0E0B82F2F
:10F23000AA2799278827820F911DA11DB11D018141
:10F2400010E020E030E0980111270027AC01BD015B
:10F25000400F511F621F731F828190E0A0E0B0E059
:10F26000BA2FA92F982F88278A019B01080F191FF1
:10F270002A1F3B1FC901B8011F910F91089560E03B
:10F2800001960E940CF9089564E001960E940CF921
:10F290000895EF92FF920F93CF93DF937C01D62FC7
:10F2A000C72F0E94B5F6ED2FFC2F80E1819300E17E
:10F2B00020E040E0BF01C7010E94D2F58D2F9C2FB6
:10F2C0000E94BFF8DF91CF910F91FF90EF900895CA
:10F2D000A0E2B0E0EEE6F9EF0C9472FD5C016B0188
:10F2E0008A0160E1CE0101960E94C8F520E1AE01DD
:10F2F0004F5F5F4FB801CA010E94ECF5780184E2CC
:10F30000E80EF11C0C5A1F4F20E1AE014F5F5F4F1A
:10F31000B701CA010E94ECF580E1E80EF11CE0168D
:10F32000F10691F720E830E040E050E0BE016F5F69
:10F330007F4FC6010E944DF500E120E040E0BE0194
:10F340006F5E7F4FC50101960E94D2F540E1B60184
:10F35000CE0141960E94FBF8A096EAE00C948EFD47
:10F36000CF93DF93D62FC72FE62FF72F2193BF011F
:10F370000E9495F78D2F9C2F0E94BFF8DF91CF91AF
:10F38000089560E00E940CF9089564E00E940CF971
:10F39000089568E00E940CF908956CE00E940CF951
:10F3A0000895CF92DF92EF92FF920F93CF93DF9366
:10F3B000CDB7DEB764970FB6F894DEBF0FBECDBFF2
:10F3C0007B016A01A901202F0E942AF888E0089F8A
:10F3D00090011124032E000C440B550BB701CE01F4
:10F3E00001960E944DF540E1B601CE0101960E94C2
:10F3F000FBF864960FB6F894DEBF0FBECDBFDF9169
:10F40000CF910F91FF90EF90DF90CF9008958F9262
:10F410009F92AF92BF92CF92DF92EF92FF926C01D8
:10F4200060E081E991E00E940CF9D694C794E12C48
:10F43000F12CA70196010E9441FD4B015C0164E0A3
:10F4400081E991E00E940CF9A70196010E9441FD1B
:10F4500020E030E06901E12CF12CC814D904EA0461
:10F46000FB0448F4E7E8F3E13197F1F700C000004E
:10F470002F5F3F4FEFCFA89520E030E06901E12CEE
:10F48000F12CC616D706E806F90648F4E7E8F3E1DA
:10F490003197F1F700C000002F5F3F4FEFCFA895E5
:10F4A000FF90EF90DF90CF90BF90AF909F908F90A4
:10F4B0000895FFCFA4E9B0E0E0E6FAEF0C946EFD0A
:10F4C0009FE088E10FB6F894A895809360000FBE86
:10F4D0009093600068E080E091E00E94DCF880E0BA
:10F4E00091E00E943FF93B018C0180E091E00E9495
:10F4F00044F94B015C01A89560E071E081E991E07D
:10F500000E9449F9A89560E180E091E00E94DCF852
:10F5100088EE93E00E9407FA41E951E0BE016F577F
:10F520007F4F80E091E00E9468F9F82EA89588EE60
:10F5300093E00E9407FAFF2009F445C080E00E9492
:10F54000AAF061E971E0CE018F579F4F0E9470F7DA
:10F55000630178018C0C9D1CAE1CBF1C16E0C81406
:10F56000D904EA04FB0490F59E012F5F3F4FD701B9
:10F57000C60140E088159905AA05BB0530F4ABBF6C
:10F58000FC015791F901508302C0F9011083A8953D
:10F590004F5F0196A11DB11D2F5F3F4F403851F7BE
:10F5A00020E841E951E060E071E0CE0101960E945F
:10F5B000B0F90E94B7F0811109C0F0E8CF0ED11C5C
:10F5C000E11CF11CCCCF81E00E94AAF0FFCF1F9379
:10F5D000CF93DF939FE088E10FB6F894A8958093CE
:10F5E00060000FBE9093600080E090E00E94B2FD4A
:10F5F000EC01892B09F4FFCFA895AE0160E070E023
:10F600006BBFFA011791812F0E94E5F0219611112D
:10F61000F4CFA8950FB6F894A89580916000886102
:10F6200080936000109260000FBE0C940000DF9188
:10F63000CF911F910895CF92DF92EF92FF92CF93D7
:10F64000DF9307B600FCFDCFF999FECF23E0FB0165
:10F6500080935B0020935700E8956B017C01A0E04C
:10F66000B0E0C1E0FA01EA0FFB1FD081218130E058
:10F67000322F22272D0F311D07B600FCFDCFF9993F
:10F68000FECF0901F601E0925B00C0935700E895B8
:10F690001124129622E0C20ED11CE11CF11CA1150E
:10F6A00021E0B207F9F607B600FCFDCFF999FECFCD
:10F6B00025E0FB0180935B0020935700E89507B697
:10F6C00000FCFDCFF999FECF21E120935700E8958A
:10F6D000DA019A0133956B017C01EBBEF60147918B
:10F6E000A8955D9154130AC08FEFC81AD80AE80A8A
:10F6F000F80AA217B30789F781E001C080E0DF9123
:10F70000CF91FF90EF90DF90CF900895CF93DF934C
:10F71000CDB7DEB7CA51D2400FB6F894DEBF0FBEE8
:10F72000CDBF9FE088E10FB6F894A8958093600064
:10F730000FBE9093600060E380E091E00E94DCF8EF
:10F7400000E120E040E0BE016F5F7D4F81E091E08D
:10F750000E94D2F500E220E040E1BE016F577E4FEB
:10F7600081E091E00E94D2F5A89561E971E0CE01B7
:10F770008F5F9D4F0E9470F721E931E0AE014F5F2E
:10F780005D4FBE016F5F7E4FCE018F579E4F0E942F
:10F79000D1F9782ECE018F5F9E4F0E94C1F94B01A7
:10F7A0005C01CE018F5F9E4F0E94C5F96B017C0109
:10F7B000A895772009F427C183E48816980685E484
:10F7C000A80684E4B80609F01EC1CF5EDD4FD982D9
:10F7D000C882C151D240D601AA3FB10508F013C179
:10F7E000CE018F5F9E4F0E94C9F94B015C01CE0193
:10F7F0008F5F9E4F0E94CDF9CD5EDD4F6883798388
:10F800008A839B83C351D24000E120E040E161E95B
:10F8100071E0CE018F5F9E4F0E94D2F5A89588EED1
:10F8200093E00E9407FA88EE93E00E9407FA8114A1
:10F830009104A104B10461F082E090E00E94B2FD65
:10F84000A0E0B0E088169906AA06BB0608F4DBC063
:10F8500080E00E94AAF0412C512C3201212C312C45
:10F86000CF5EDD4F88819981C151D240281639067B
:10F8700008F06FC060E980E091E00E94DCF800E1F0
:10F8800020E040E0BE016F5F7D4F81E091E00E948B
:10F89000D2F500E820E040E1BE016F577E4F81E0E5
:10F8A00091E00E94D2F521E931E0AE014F5F5D4F5A
:10F8B000BE016F5F7E4FCE018F579E4F0E94D1F9E0
:10F8C000A895882309F441C020FE2BC020E840E021
:10F8D000BE016F5F7F4FCE018F5F9E4F0E94D2F5BA
:10F8E000D301C2019056AF4FBF4FC95EDD4F888331
:10F8F0009983AA83BB83C751D240AE014F5F5F4F4C
:10F90000C95EDD4F688179818A819B81C751D24070
:10F910000E941BFB882389F39FEF591A690A790A11
:10F920000BC000E820E040E0BE016F5F7F4FCE01DA
:10F930008F5F9E4F0E94D2F5AFEF2A1A3A0AA89520
:10F9400080E00E94AAF0A8958BCF81E00E94AAF0E7
:10F95000FFCF88EE93E00E9407FA88EE93E00E94C2
:10F9600007FA81E991E00E9439F1A8958114910488
:10F97000A104B10431F0B40182E090E00E94CAFD1C
:10F98000A895CD5EDD4F68817981C351D24080E07A
:10F9900090E00E94CAFDA895D694DC2CCC24D79484
:10F9A000C794E12CF12C412C512C32015E0191E0E5
:10F9B000A90EB91E4C145D046E047F0410F5B3014A
:10F9C000A20150566F4F7F4FDE0111966BBFFA01B7
:10F9D00087918D93A8954F5F5F4F6F4F7F4FAA150B
:10F9E000BB05A1F7AE014F5F5F4FC301B2010E949B
:10F9F0001BFB8823B9F3AFEF5A1A6A0A7A0AA89553
:10FA0000D9CF80E001C081E00E94AAF0FFCF0E9420
:10FA1000D4F00E9499F0A89580E699E00E9407FA38
:10FA200080E699E00E9407FA81E991E00E940FF1D7
:10FA3000A89584B1837F84B985B18C6085B91A9902
:10FA400005C085E50E94AAF00E9486FB1B9905C0AF
:10FA500082E50E94AAF00E945AFA82E40E94AAF06B
:10FA60000E94E7FA80E090E00895991B79E004C0D5
:10FA7000991F961708F0961B881F7A95C9F78095ED
:10FA80000895A1E21A2EAA1BBB1BFD010DC0AA1FDF
:10FA9000BB1FEE1FFF1FA217B307E407F50720F0F7
:10FAA000A21BB30BE40BF50B661F771F881F991F72
:10FAB0001A9469F760957095809590959B01AC01BB
:10FAC000BD01CF01089569279627692778278727E1
:10FAD000782708952F923F924F925F926F927F9274
:10FAE0008F929F92AF92BF92CF92DF92EF92FF924E
:10FAF0000F931F93CF93DF93CDB7DEB7CA1BDB0BFA
:10FB00000FB6F894DEBF0FBECDBF09942A8839889E
:10FB100048885F846E847D848C849B84AA84B984A5
:10FB2000C884DF80EE80FD800C811B81AA81B981B1
:10FB3000CE0FD11D0FB6F894DEBF0FBECDBFED01C5
:10FB400008952A0D3B1D4C1D5D1D6E1D7F1D801FE0
:10FB5000911F0895F999FECF92BD81BDF89A99271A
:10FB600080B50895A8E1B0E042E050E00C94D2FDE9
:10FB7000262FF999FECF92BD81BDF89A019700B466
:10FB8000021639F01FBA20BD0FB6F894FA9AF99A06
:10FB90000FBE08950196272F0E94B9FD0C94B8FD61
:10FBA000DC01CB01FC01F999FECF06C0F2BDE1BD3D
:10FBB000F89A319600B40D9241505040B8F708952C
:040000031000E00009
:00000001FF
