:100000000C9446000C9450000C9450000C9450003A
:100010000C9450000C9450000C9450000C94500020
:100020000C9450000C9450000C9450000C94500010
:100030000C9450000C9450000C9450000C94500000
:100040000C9450000C9450000C9450000C945000F0
:100050000C9450000C9450000C9450000C945000E0
:100060000C9450000C9450000C9450000C945000D0
:100070000C9450000C9450000C9450000C945000C0
:100080000C9450000C9450000C94500011241FBE8E
:10009000CFEFD0E4DEBFCDBF0E9452000C9493009E
:1000A0000C940000209A21E092E084E025B93FEF13
:1000B00048E05DE3315040405040E1F700C00000AF
:1000C00015B83FEF48E05DE3315040405040E1F764
:1000D00000C0000095B93FEF48E05DE3315040407B
:1000E0005040E1F700C0000015B83FEF48E05DE385
:1000F000315040405040E1F700C0000085B93FEF6B
:1001000048E05DE3315040405040E1F700C000005E
:1001100015B83FEF48E05DE3315040405040E1F713
:0A01200000C00000C3CFF894FFCF29
:00000001FF
